{
  "_format": "hh-sol-artifact-1",
  "contractName": "UserAuthentication",
  "sourceName": "contracts/UserAuthentication.sol",
  "abi": [
    {
      "anonymous": false,
      "inputs": [
        {
          "indexed": true,
          "internalType": "address",
          "name": "user",
          "type": "address"
        },
        {
          "indexed": false,
          "internalType": "string",
          "name": "hashedPassword",
          "type": "string"
        },
        {
          "indexed": false,
          "internalType": "string",
          "name": "salt",
          "type": "string"
        },
        {
          "indexed": false,
          "internalType": "string",
          "name": "publicKey",
          "type": "string"
        }
      ],
      "name": "UserRegistered",
      "type": "event"
    },
    {
      "inputs": [
        {
          "internalType": "string",
          "name": "publicKey",
          "type": "string"
        }
      ],
      "name": "getUserByPublicKey",
      "outputs": [
        {
          "internalType": "string",
          "name": "",
          "type": "string"
        },
        {
          "internalType": "string",
          "name": "",
          "type": "string"
        },
        {
          "internalType": "string",
          "name": "",
          "type": "string"
        }
      ],
      "stateMutability": "view",
      "type": "function"
    },
    {
      "inputs": [
        {
          "internalType": "string",
          "name": "hashedPassword",
          "type": "string"
        },
        {
          "internalType": "string",
          "name": "salt",
          "type": "string"
        },
        {
          "internalType": "string",
          "name": "publicKey",
          "type": "string"
        }
      ],
      "name": "registerUser",
      "outputs": [],
      "stateMutability": "nonpayable",
      "type": "function"
    },
    {
      "inputs": [
        {
          "internalType": "string",
          "name": "",
          "type": "string"
        }
      ],
      "name": "users",
      "outputs": [
        {
          "internalType": "string",
          "name": "hashedPassword",
          "type": "string"
        },
        {
          "internalType": "string",
          "name": "salt",
          "type": "string"
        },
        {
          "internalType": "string",
          "name": "publicKey",
          "type": "string"
        }
      ],
      "stateMutability": "view",
      "type": "function"
    }
  ],
  "bytecode": "0x6080604052348015600f57600080fd5b50610cd38061001f6000396000f3fe608060405234801561001057600080fd5b50600436106100415760003560e01c8063689e1c0314610046578063d637dcfa14610078578063db35369a14610094575b600080fd5b610060600480360381019061005b9190610715565b6100c6565b60405161006f939291906107dd565b60405180910390f35b610092600480360381019061008d9190610829565b61029e565b005b6100ae60048036038101906100a99190610715565b6103b7565b6040516100bd939291906107dd565b60405180910390f35b6000818051602081018201805184825260208301602085012081835280955050505050506000915090508060000180546100ff906108ff565b80601f016020809104026020016040519081016040528092919081815260200182805461012b906108ff565b80156101785780601f1061014d57610100808354040283529160200191610178565b820191906000526020600020905b81548152906001019060200180831161015b57829003601f168201915b50505050509080600101805461018d906108ff565b80601f01602080910402602001604051908101604052809291908181526020018280546101b9906108ff565b80156102065780601f106101db57610100808354040283529160200191610206565b820191906000526020600020905b8154815290600101906020018083116101e957829003601f168201915b50505050509080600201805461021b906108ff565b80601f0160208091040260200160405190810160405280929190818152602001828054610247906108ff565b80156102945780601f1061026957610100808354040283529160200191610294565b820191906000526020600020905b81548152906001019060200180831161027757829003601f168201915b5050505050905083565b60008151116102e2576040517f08c379a00000000000000000000000000000000000000000000000000000000081526004016102d9906109a2565b60405180910390fd5b60405180606001604052808481526020018381526020018281525060008260405161030d91906109fe565b908152602001604051809103902060008201518160000190816103309190610bcb565b5060208201518160010190816103469190610bcb565b50604082015181600201908161035c9190610bcb565b509050503373ffffffffffffffffffffffffffffffffffffffff167f509c70f523067009f7db7f46db6956d7af8b679323680dc3821a8bad001ac1e18484846040516103aa939291906107dd565b60405180910390a2505050565b6060806060600080856040516103cd91906109fe565b90815260200160405180910390206040518060600160405290816000820180546103f6906108ff565b80601f0160208091040260200160405190810160405280929190818152602001828054610422906108ff565b801561046f5780601f106104445761010080835404028352916020019161046f565b820191906000526020600020905b81548152906001019060200180831161045257829003601f168201915b50505050508152602001600182018054610488906108ff565b80601f01602080910402602001604051908101604052809291908181526020018280546104b4906108ff565b80156105015780601f106104d657610100808354040283529160200191610501565b820191906000526020600020905b8154815290600101906020018083116104e457829003601f168201915b5050505050815260200160028201805461051a906108ff565b80601f0160208091040260200160405190810160405280929190818152602001828054610546906108ff565b80156105935780601f1061056857610100808354040283529160200191610593565b820191906000526020600020905b81548152906001019060200180831161057657829003601f168201915b5050505050815250509050806000015181602001518260400151935093509350509193909250565b6000604051905090565b600080fd5b600080fd5b600080fd5b600080fd5b6000601f19601f8301169050919050565b7f4e487b7100000000000000000000000000000000000000000000000000000000600052604160045260246000fd5b610622826105d9565b810181811067ffffffffffffffff82111715610641576106406105ea565b5b80604052505050565b60006106546105bb565b90506106608282610619565b919050565b600067ffffffffffffffff8211156106805761067f6105ea565b5b610689826105d9565b9050602081019050919050565b82818337600083830152505050565b60006106b86106b384610665565b61064a565b9050828152602081018484840111156106d4576106d36105d4565b5b6106df848285610696565b509392505050565b600082601f8301126106fc576106fb6105cf565b5b813561070c8482602086016106a5565b91505092915050565b60006020828403121561072b5761072a6105c5565b5b600082013567ffffffffffffffff811115610749576107486105ca565b5b610755848285016106e7565b91505092915050565b600081519050919050565b600082825260208201905092915050565b60005b8381101561079857808201518184015260208101905061077d565b60008484015250505050565b60006107af8261075e565b6107b98185610769565b93506107c981856020860161077a565b6107d2816105d9565b840191505092915050565b600060608201905081810360008301526107f781866107a4565b9050818103602083015261080b81856107a4565b9050818103604083015261081f81846107a4565b9050949350505050565b600080600060608486031215610842576108416105c5565b5b600084013567ffffffffffffffff8111156108605761085f6105ca565b5b61086c868287016106e7565b935050602084013567ffffffffffffffff81111561088d5761088c6105ca565b5b610899868287016106e7565b925050604084013567ffffffffffffffff8111156108ba576108b96105ca565b5b6108c6868287016106e7565b9150509250925092565b7f4e487b7100000000000000000000000000000000000000000000000000000000600052602260045260246000fd5b6000600282049050600182168061091757607f821691505b60208210810361092a576109296108d0565b5b50919050565b7f5075626c6963206b65792028757365726e616d65292063616e6e6f742062652060008201527f656d707479000000000000000000000000000000000000000000000000000000602082015250565b600061098c602583610769565b915061099782610930565b604082019050919050565b600060208201905081810360008301526109bb8161097f565b9050919050565b600081905092915050565b60006109d88261075e565b6109e281856109c2565b93506109f281856020860161077a565b80840191505092915050565b6000610a0a82846109cd565b915081905092915050565b60008190508160005260206000209050919050565b60006020601f8301049050919050565b600082821b905092915050565b600060088302610a777fffffffffffffffffffffffffffffffffffffffffffffffffffffffffffffffff82610a3a565b610a818683610a3a565b95508019841693508086168417925050509392505050565b6000819050919050565b6000819050919050565b6000610ac8610ac3610abe84610a99565b610aa3565b610a99565b9050919050565b6000819050919050565b610ae283610aad565b610af6610aee82610acf565b848454610a47565b825550505050565b600090565b610b0b610afe565b610b16818484610ad9565b505050565b5b81811015610b3a57610b2f600082610b03565b600181019050610b1c565b5050565b601f821115610b7f57610b5081610a15565b610b5984610a2a565b81016020851015610b68578190505b610b7c610b7485610a2a565b830182610b1b565b50505b505050565b600082821c905092915050565b6000610ba260001984600802610b84565b1980831691505092915050565b6000610bbb8383610b91565b9150826002028217905092915050565b610bd48261075e565b67ffffffffffffffff811115610bed57610bec6105ea565b5b610bf782546108ff565b610c02828285610b3e565b600060209050601f831160018114610c355760008415610c23578287015190505b610c2d8582610baf565b865550610c95565b601f198416610c4386610a15565b60005b82811015610c6b57848901518255600182019150602085019450602081019050610c46565b86831015610c885784890151610c84601f891682610b91565b8355505b6001600288020188555050505b50505050505056fea2646970667358221220fb670e7ccf7069ae6a0df948c5451a2ff0b326b8236a494b41b4fe8469dcf90364736f6c634300081c0033",
  "linkReferences": {},
  "deployedLinkReferences": {}
}