{
  "_format": "hh-sol-artifact-1",
  "contractName": "UserAuthentication",
  "sourceName": "contracts/UserAuthentication.sol",
  "abi": [
    {
      "anonymous": false,
      "inputs": [
        {
          "indexed": true,
          "internalType": "address",
          "name": "user",
          "type": "address"
        },
        {
          "indexed": false,
          "internalType": "string",
          "name": "hashedPassword",
          "type": "string"
        },
        {
          "indexed": false,
          "internalType": "string",
          "name": "salt",
          "type": "string"
        },
        {
          "indexed": false,
          "internalType": "string",
          "name": "rsaPublicKey",
          "type": "string"
        }
      ],
      "name": "UserRegistered",
      "type": "event"
    },
    {
      "inputs": [
        {
          "internalType": "address",
          "name": "user",
          "type": "address"
        }
      ],
      "name": "getUserData",
      "outputs": [
        {
          "internalType": "string",
          "name": "",
          "type": "string"
        },
        {
          "internalType": "string",
          "name": "",
          "type": "string"
        },
        {
          "internalType": "string",
          "name": "",
          "type": "string"
        }
      ],
      "stateMutability": "view",
      "type": "function"
    },
    {
      "inputs": [
        {
          "internalType": "string",
          "name": "hashedPassword",
          "type": "string"
        },
        {
          "internalType": "string",
          "name": "salt",
          "type": "string"
        },
        {
          "internalType": "string",
          "name": "rsaPublicKey",
          "type": "string"
        }
      ],
      "name": "registerUser",
      "outputs": [],
      "stateMutability": "nonpayable",
      "type": "function"
    },
    {
      "inputs": [
        {
          "internalType": "address",
          "name": "",
          "type": "address"
        }
      ],
      "name": "users",
      "outputs": [
        {
          "internalType": "string",
          "name": "hashedPassword",
          "type": "string"
        },
        {
          "internalType": "string",
          "name": "salt",
          "type": "string"
        },
        {
          "internalType": "string",
          "name": "rsaPublicKey",
          "type": "string"
        }
      ],
      "stateMutability": "view",
      "type": "function"
    }
  ],
  "bytecode": "0x6080604052348015600f57600080fd5b50610c178061001f6000396000f3fe608060405234801561001057600080fd5b50600436106100415760003560e01c8063a87430ba14610046578063d637dcfa14610078578063ffc9896b14610094575b600080fd5b610060600480360381019061005b9190610614565b6100c6565b60405161006f939291906106d1565b60405180910390f35b610092600480360381019061008d9190610852565b610288565b005b6100ae60048036038101906100a99190610614565b61037d565b6040516100bd939291906106d1565b60405180910390f35b60006020528060005260406000206000915090508060000180546100e990610928565b80601f016020809104026020016040519081016040528092919081815260200182805461011590610928565b80156101625780601f1061013757610100808354040283529160200191610162565b820191906000526020600020905b81548152906001019060200180831161014557829003601f168201915b50505050509080600101805461017790610928565b80601f01602080910402602001604051908101604052809291908181526020018280546101a390610928565b80156101f05780601f106101c5576101008083540402835291602001916101f0565b820191906000526020600020905b8154815290600101906020018083116101d357829003601f168201915b50505050509080600201805461020590610928565b80601f016020809104026020016040519081016040528092919081815260200182805461023190610928565b801561027e5780601f106102535761010080835404028352916020019161027e565b820191906000526020600020905b81548152906001019060200180831161026157829003601f168201915b5050505050905083565b6040518060600160405280848152602001838152602001828152506000803373ffffffffffffffffffffffffffffffffffffffff1673ffffffffffffffffffffffffffffffffffffffff16815260200190815260200160002060008201518160000190816102f69190610b0f565b50602082015181600101908161030c9190610b0f565b5060408201518160020190816103229190610b0f565b509050503373ffffffffffffffffffffffffffffffffffffffff167f509c70f523067009f7db7f46db6956d7af8b679323680dc3821a8bad001ac1e1848484604051610370939291906106d1565b60405180910390a2505050565b606080606060008060008673ffffffffffffffffffffffffffffffffffffffff1673ffffffffffffffffffffffffffffffffffffffff1681526020019081526020016000206040518060600160405290816000820180546103dd90610928565b80601f016020809104026020016040519081016040528092919081815260200182805461040990610928565b80156104565780601f1061042b57610100808354040283529160200191610456565b820191906000526020600020905b81548152906001019060200180831161043957829003601f168201915b5050505050815260200160018201805461046f90610928565b80601f016020809104026020016040519081016040528092919081815260200182805461049b90610928565b80156104e85780601f106104bd576101008083540402835291602001916104e8565b820191906000526020600020905b8154815290600101906020018083116104cb57829003601f168201915b5050505050815260200160028201805461050190610928565b80601f016020809104026020016040519081016040528092919081815260200182805461052d90610928565b801561057a5780601f1061054f5761010080835404028352916020019161057a565b820191906000526020600020905b81548152906001019060200180831161055d57829003601f168201915b5050505050815250509050806000015181602001518260400151935093509350509193909250565b6000604051905090565b600080fd5b600080fd5b600073ffffffffffffffffffffffffffffffffffffffff82169050919050565b60006105e1826105b6565b9050919050565b6105f1816105d6565b81146105fc57600080fd5b50565b60008135905061060e816105e8565b92915050565b60006020828403121561062a576106296105ac565b5b6000610638848285016105ff565b91505092915050565b600081519050919050565b600082825260208201905092915050565b60005b8381101561067b578082015181840152602081019050610660565b60008484015250505050565b6000601f19601f8301169050919050565b60006106a382610641565b6106ad818561064c565b93506106bd81856020860161065d565b6106c681610687565b840191505092915050565b600060608201905081810360008301526106eb8186610698565b905081810360208301526106ff8185610698565b905081810360408301526107138184610698565b9050949350505050565b600080fd5b600080fd5b7f4e487b7100000000000000000000000000000000000000000000000000000000600052604160045260246000fd5b61075f82610687565b810181811067ffffffffffffffff8211171561077e5761077d610727565b5b80604052505050565b60006107916105a2565b905061079d8282610756565b919050565b600067ffffffffffffffff8211156107bd576107bc610727565b5b6107c682610687565b9050602081019050919050565b82818337600083830152505050565b60006107f56107f0846107a2565b610787565b90508281526020810184848401111561081157610810610722565b5b61081c8482856107d3565b509392505050565b600082601f8301126108395761083861071d565b5b81356108498482602086016107e2565b91505092915050565b60008060006060848603121561086b5761086a6105ac565b5b600084013567ffffffffffffffff811115610889576108886105b1565b5b61089586828701610824565b935050602084013567ffffffffffffffff8111156108b6576108b56105b1565b5b6108c286828701610824565b925050604084013567ffffffffffffffff8111156108e3576108e26105b1565b5b6108ef86828701610824565b9150509250925092565b7f4e487b7100000000000000000000000000000000000000000000000000000000600052602260045260246000fd5b6000600282049050600182168061094057607f821691505b602082108103610953576109526108f9565b5b50919050565b60008190508160005260206000209050919050565b60006020601f8301049050919050565b600082821b905092915050565b6000600883026109bb7fffffffffffffffffffffffffffffffffffffffffffffffffffffffffffffffff8261097e565b6109c5868361097e565b95508019841693508086168417925050509392505050565b6000819050919050565b6000819050919050565b6000610a0c610a07610a02846109dd565b6109e7565b6109dd565b9050919050565b6000819050919050565b610a26836109f1565b610a3a610a3282610a13565b84845461098b565b825550505050565b600090565b610a4f610a42565b610a5a818484610a1d565b505050565b5b81811015610a7e57610a73600082610a47565b600181019050610a60565b5050565b601f821115610ac357610a9481610959565b610a9d8461096e565b81016020851015610aac578190505b610ac0610ab88561096e565b830182610a5f565b50505b505050565b600082821c905092915050565b6000610ae660001984600802610ac8565b1980831691505092915050565b6000610aff8383610ad5565b9150826002028217905092915050565b610b1882610641565b67ffffffffffffffff811115610b3157610b30610727565b5b610b3b8254610928565b610b46828285610a82565b600060209050601f831160018114610b795760008415610b67578287015190505b610b718582610af3565b865550610bd9565b601f198416610b8786610959565b60005b82811015610baf57848901518255600182019150602085019450602081019050610b8a565b86831015610bcc5784890151610bc8601f891682610ad5565b8355505b6001600288020188555050505b50505050505056fea26469706673582212204c6167fb58a73bb22ff93630ab3462471a11fd4fb3024e036c9f558bc2357c3c64736f6c634300081c0033",
  "linkReferences": {},
  "deployedLinkReferences": {}
}